{
  "contractName": "CrowdfundingWithDeadline",
  "abi": [
    {
      "constant": true,
      "inputs": [],
      "name": "name",
      "outputs": [
        {
          "name": "",
          "type": "string"
        }
      ],
      "payable": false,
      "stateMutability": "view",
      "type": "function"
    },
    {
      "constant": true,
      "inputs": [],
      "name": "beneficiary",
      "outputs": [
        {
          "name": "",
          "type": "address"
        }
      ],
      "payable": false,
      "stateMutability": "view",
      "type": "function"
    },
    {
      "constant": true,
      "inputs": [
        {
          "name": "",
          "type": "address"
        }
      ],
      "name": "amounts",
      "outputs": [
        {
          "name": "",
          "type": "uint256"
        }
      ],
      "payable": false,
      "stateMutability": "view",
      "type": "function"
    },
    {
      "constant": true,
      "inputs": [],
      "name": "fundingDeadline",
      "outputs": [
        {
          "name": "",
          "type": "uint256"
        }
      ],
      "payable": false,
      "stateMutability": "view",
      "type": "function"
    },
    {
      "constant": true,
      "inputs": [],
      "name": "collected",
      "outputs": [
        {
          "name": "",
          "type": "bool"
        }
      ],
      "payable": false,
      "stateMutability": "view",
      "type": "function"
    },
    {
      "constant": true,
      "inputs": [],
      "name": "targetAmount",
      "outputs": [
        {
          "name": "",
          "type": "uint256"
        }
      ],
      "payable": false,
      "stateMutability": "view",
      "type": "function"
    },
    {
      "constant": true,
      "inputs": [],
      "name": "state",
      "outputs": [
        {
          "name": "",
          "type": "uint8"
        }
      ],
      "payable": false,
      "stateMutability": "view",
      "type": "function"
    },
    {
      "constant": true,
      "inputs": [],
      "name": "totalCollected",
      "outputs": [
        {
          "name": "",
          "type": "uint256"
        }
      ],
      "payable": false,
      "stateMutability": "view",
      "type": "function"
    },
    {
      "inputs": [
        {
          "name": "contractName",
          "type": "string"
        },
        {
          "name": "targetAmountWei",
          "type": "uint256"
        },
        {
          "name": "durationInMin",
          "type": "uint256"
        },
        {
          "name": "beneficiaryAddress",
          "type": "address"
        }
      ],
      "payable": false,
      "stateMutability": "nonpayable",
      "type": "constructor"
    },
    {
      "anonymous": false,
      "inputs": [
        {
          "indexed": false,
          "name": "addr",
          "type": "address"
        },
        {
          "indexed": false,
          "name": "totalCollected",
          "type": "uint256"
        },
        {
          "indexed": false,
          "name": "succeeded",
          "type": "bool"
        }
      ],
      "name": "CampaignFinished",
      "type": "event"
    },
    {
      "constant": false,
      "inputs": [],
      "name": "contribute",
      "outputs": [],
      "payable": true,
      "stateMutability": "payable",
      "type": "function"
    },
    {
      "constant": true,
      "inputs": [],
      "name": "beforeDeadline",
      "outputs": [
        {
          "name": "",
          "type": "bool"
        }
      ],
      "payable": false,
      "stateMutability": "view",
      "type": "function"
    },
    {
      "constant": false,
      "inputs": [],
      "name": "collect",
      "outputs": [],
      "payable": false,
      "stateMutability": "nonpayable",
      "type": "function"
    },
    {
      "constant": false,
      "inputs": [],
      "name": "withdraw",
      "outputs": [],
      "payable": false,
      "stateMutability": "nonpayable",
      "type": "function"
    },
    {
      "constant": false,
      "inputs": [],
      "name": "finishCrowdfunding",
      "outputs": [],
      "payable": false,
      "stateMutability": "nonpayable",
      "type": "function"
    }
  ],
  "bytecode": "0x60806040523480156200001157600080fd5b5060405162000ec538038062000ec58339810180604052810190808051820192919060200180519060200190929190805190602001909291908051906020019092919050505083600090805190602001906200006f929190620001bb565b506001830260018190555073__Utils_________________________________63529b380f836040518263ffffffff167c01000000000000000000000000000000000000000000000000000000000281526004018082815260200191505060206040518083038186803b158015620000e657600080fd5b505af4158015620000fb573d6000803e3d6000fd5b505050506040513d60208110156200011257600080fd5b81019080805190602001909291905050506200013c620001b3640100000000026401000000009004565b0160028190555080600360006101000a81548173ffffffffffffffffffffffffffffffffffffffff021916908373ffffffffffffffffffffffffffffffffffffffff1602179055506000600360146101000a81548160ff02191690836003811115620001a457fe5b0217905550505050506200026a565b600042905090565b828054600181600116156101000203166002900490600052602060002090601f016020900481019282601f10620001fe57805160ff19168380011785556200022f565b828001600101855582156200022f579182015b828111156200022e57825182559160200191906001019062000211565b5b5090506200023e919062000242565b5090565b6200026791905b808211156200026357600081600090555060010162000249565b5090565b90565b610c4b806200027a6000396000f3006080604052600436106100c5576000357c0100000000000000000000000000000000000000000000000000000000900463ffffffff16806306fdde03146100ca57806338af3eed1461015a5780633ccfd60b146101b157806355a3b2c1146101c857806368bc00411461021f578063796b23bb1461024e57806384bcefd414610279578063953b8fb8146102a8578063a84669de146102d3578063c19d93fb146102ea578063d7bb99ba14610323578063e29eb8361461032d578063e522538114610358575b600080fd5b3480156100d657600080fd5b506100df61036f565b6040518080602001828103825283818151815260200191508051906020019080838360005b8381101561011f578082015181840152602081019050610104565b50505050905090810190601f16801561014c5780820380516001836020036101000a031916815260200191505b509250505060405180910390f35b34801561016657600080fd5b5061016f61040d565b604051808273ffffffffffffffffffffffffffffffffffffffff1673ffffffffffffffffffffffffffffffffffffffff16815260200191505060405180910390f35b3480156101bd57600080fd5b506101c6610433565b005b3480156101d457600080fd5b50610209600480360381019080803573ffffffffffffffffffffffffffffffffffffffff169060200190929190505050610695565b6040518082815260200191505060405180910390f35b34801561022b57600080fd5b506102346106ad565b604051808215151515815260200191505060405180910390f35b34801561025a57600080fd5b506102636106c0565b6040518082815260200191505060405180910390f35b34801561028557600080fd5b5061028e6106c6565b604051808215151515815260200191505060405180910390f35b3480156102b457600080fd5b506102bd6106d9565b6040518082815260200191505060405180910390f35b3480156102df57600080fd5b506102e86106df565b005b3480156102f657600080fd5b506102ff610887565b6040518082600381111561030f57fe5b60ff16815260200191505060405180910390f35b61032b61089a565b005b34801561033957600080fd5b50610342610a3d565b6040518082815260200191505060405180910390f35b34801561036457600080fd5b5061036d610a43565b005b60008054600181600116156101000203166002900480601f0160208091040260200160405190810160405280929190818152602001828054600181600116156101000203166002900480156104055780601f106103da57610100808354040283529160200191610405565b820191906000526020600020905b8154815290600101906020018083116103e857829003601f168201915b505050505081565b600360009054906101000a900473ffffffffffffffffffffffffffffffffffffffff1681565b6000600180600381111561044357fe5b600360149054906101000a900460ff16600381111561045e57fe5b1415156104d3576040517f08c379a000000000000000000000000000000000000000000000000000000000815260040180806020018281038252600d8152602001807f496e76616c69642073746174650000000000000000000000000000000000000081525060200191505060405180910390fd5b6000600460003373ffffffffffffffffffffffffffffffffffffffff1673ffffffffffffffffffffffffffffffffffffffff1681526020019081526020016000205411151561058a576040517f08c379a00000000000000000000000000000000000000000000000000000000081526004018080602001828103825260178152602001807f4e6f7468696e672077617320636f6e747269627574656400000000000000000081525060200191505060405180910390fd5b600460003373ffffffffffffffffffffffffffffffffffffffff1673ffffffffffffffffffffffffffffffffffffffff1681526020019081526020016000205491506000600460003373ffffffffffffffffffffffffffffffffffffffff1673ffffffffffffffffffffffffffffffffffffffff168152602001908152602001600020819055503373ffffffffffffffffffffffffffffffffffffffff166108fc839081150290604051600060405180830381858888f1935050505015156106915781600460003373ffffffffffffffffffffffffffffffffffffffff1673ffffffffffffffffffffffffffffffffffffffff168152602001908152602001600020819055505b5050565b60046020528060005260406000206000915090505481565b60006002546106ba610c17565b10905090565b60025481565b600560009054906101000a900460ff1681565b60015481565b60008060038111156106ed57fe5b600360149054906101000a900460ff16600381111561070857fe5b14151561077d576040517f08c379a000000000000000000000000000000000000000000000000000000000815260040180806020018281038252600d8152602001807f496e76616c69642073746174650000000000000000000000000000000000000081525060200191505060405180910390fd5b6107856106ad565b151515610820576040517f08c379a00000000000000000000000000000000000000000000000000000000081526004018080602001828103825260288152602001807f43616e6e6f742066696e6973682063616d706169676e206265666f726520612081526020017f646561646c696e6500000000000000000000000000000000000000000000000081525060400191505060405180910390fd5b600560009054906101000a900460ff16151561085f576001600360146101000a81548160ff0219169083600381111561085557fe5b0217905550610884565b6002600360146101000a81548160ff0219169083600381111561087e57fe5b02179055505b50565b600360149054906101000a900460ff1681565b60008060038111156108a857fe5b600360149054906101000a900460ff1660038111156108c357fe5b141515610938576040517f08c379a000000000000000000000000000000000000000000000000000000000815260040180806020018281038252600d8152602001807f496e76616c69642073746174650000000000000000000000000000000000000081525060200191505060405180910390fd5b6109406106ad565b15156109b4576040517f08c379a000000000000000000000000000000000000000000000000000000000815260040180806020018281038252601f8152602001807f4e6f20636f6e747269627574696f6e7320616674657220646561646c696e650081525060200191505060405180910390fd5b34600460003373ffffffffffffffffffffffffffffffffffffffff1673ffffffffffffffffffffffffffffffffffffffff1681526020019081526020016000206000828254019250508190555034600660008282540192505081905550600154600654101515610a3a576001600560006101000a81548160ff0219169083151502179055505b50565b60065481565b6002806003811115610a5157fe5b600360149054906101000a900460ff166003811115610a6c57fe5b141515610ae1576040517f08c379a000000000000000000000000000000000000000000000000000000000815260040180806020018281038252600d8152602001807f496e76616c69642073746174650000000000000000000000000000000000000081525060200191505060405180910390fd5b600360009054906101000a900473ffffffffffffffffffffffffffffffffffffffff1673ffffffffffffffffffffffffffffffffffffffff166108fc6006549081150290604051600060405180830381858888f1935050505015610b675760038060146101000a81548160ff02191690836003811115610b5d57fe5b0217905550610b8c565b6001600360146101000a81548160ff02191690836003811115610b8657fe5b02179055505b7f6fa7e87ebbd87ed4f1c40bba63144f68fd2bb022fb748ab3b61b5411c39bd47430600654600560009054906101000a900460ff16604051808473ffffffffffffffffffffffffffffffffffffffff1673ffffffffffffffffffffffffffffffffffffffff16815260200183815260200182151515158152602001935050505060405180910390a150565b6000429050905600a165627a7a7230582081b93c8fc5a6f97ec077381dc01547708aee992489788119dc9fc8be6ba42ee20029",
  "source": "pragma solidity ^0.4.0;\n\nimport \"./Utils.sol\";\n\ncontract CrowdfundingWithDeadline {\n\n    using Utils for *;\n\n    enum State { Ongoing, Failed, Succeeded, PaidOut }\n\n    //This is the event we will emit when the campaign is done\n    event CampaignFinished( \n        address addr,\n        uint totalCollected,\n        bool succeeded\n    );\n\n    string public name;\n    uint256 public targetAmount;\n    uint256 public fundingDeadline;\n    address public beneficiary;\n    State public state;\n    mapping(address => uint) public amounts;\n    bool public collected; // Set to true once our smart contract collected all funds needed\n    uint public totalCollected; //Total amount of funds collected so far\n\n    //Modifier \n    modifier inState(State expectedState){\n        require(state == expectedState, \"Invalid state\");\n        //Apply this modifier to methods\n        _;\n    }\n\n    //It is the method to send funds (only can be called if the state is OnGoing)\n    //It is payable cause it will receive funds\n    function contribute() public payable inState(State.Ongoing){\n        //Users can only contribute before the deadline happened\n        require(beforeDeadline(), \"No contributions after deadline\");\n        amounts[msg.sender] += msg.value;\n        totalCollected += msg.value;\n\n        if(totalCollected >= targetAmount){\n            collected = true;\n        }\n    }\n\n    constructor(string contractName, uint targetAmountWei,\n            uint durationInMin, address beneficiaryAddress) public {\n        name = contractName;\n        targetAmount = targetAmountWei * 1; //ether;\n        fundingDeadline = currentTime() + Utils.minutesToSeconds(durationInMin);\n        beneficiary = beneficiaryAddress;\n        state = State.Ongoing;\n     }\n\n    function currentTime() internal view returns (uint) {\n        return now;\n    }\n\n    function beforeDeadline() public view returns(bool){\n        return currentTime() < fundingDeadline;\n    }\n\n    function collect() public inState(State.Succeeded){\n        if(beneficiary.send(totalCollected)){\n            state = State.PaidOut;\n        }else{\n            state = State.Failed;\n        }\n\n        //'this' keyword returns the address of the contract\n        emit CampaignFinished(this, totalCollected, collected);\n    }\n\n    //Each user can claim the money they \n    function withdraw() public inState(State.Failed){\n        require(amounts[msg.sender] > 0, \"Nothing was contributed\");\n        uint contributed = amounts[msg.sender];\n        amounts[msg.sender] = 0;\n\n        if(!msg.sender.send(contributed)){\n            //If it fails to send the funds back to the contributor, we revert it\n            //and put the funds back in the contract\n            amounts[msg.sender] = contributed;\n        }\n    }\n\n\n    //Given that ethereum can not receive events from outside, so we need to explicitly\n    //to notify the contract that the campaign finished\n     function finishCrowdfunding() public inState(State.Ongoing){\n         require(!beforeDeadline(), \"Cannot finish campaign before a deadline\");\n\n         if(!collected){\n             state = State.Failed;\n         }else{\n             state = State.Succeeded;\n         }\n     }\n}",
  "sourcePath": "/Users/Ivan/Development/crowdfunding/contracts/CrowdfundingWithDeadline.sol",
  "compiler": {
    "name": "solc",
    "version": "0.4.22+commit.4cb486ee.Emscripten.clang"
  },
  "schemaVersion": "3.4.2",
  "updatedAt": "2021-07-30T18:19:29.273Z",
  "devdoc": {
    "methods": {}
  },
  "userdoc": {
    "methods": {}
  }
}