{
  "contractName": "Utils",
  "abi": [
    {
      "constant": true,
      "inputs": [
        {
          "name": "timeInMin",
          "type": "uint256"
        }
      ],
      "name": "minutesToSeconds",
      "outputs": [
        {
          "name": "",
          "type": "uint256"
        }
      ],
      "payable": false,
      "stateMutability": "pure",
      "type": "function"
    }
  ],
  "bytecode": "0x60c661002f600b82828239805160001a6073146000811461001f57610021565bfe5b5030600052607381538281f30073000000000000000000000000000000000000000030146080604052600436106056576000357c0100000000000000000000000000000000000000000000000000000000900463ffffffff168063529b380f14605b575b600080fd5b607760048036038101908080359060200190929190505050608d565b6040518082815260200191505060405180910390f35b6000603c820290509190505600a165627a7a72305820300681ff00cd37736b1cbb3885e96e8a64ecfc35bf46574c6337ea3d2140b87c0029",
  "source": "pragma solidity ^0.4.0;\n\nlibrary Utils {\n    function minutesToSeconds(uint timeInMin) public pure returns(uint){\n        return timeInMin * 1 minutes;\n    }\n}",
  "sourcePath": "/Users/Ivan/Development/crowdfunding/contracts/Utils.sol",
  "compiler": {
    "name": "solc",
    "version": "0.4.22+commit.4cb486ee.Emscripten.clang"
  },
  "schemaVersion": "3.4.2",
  "updatedAt": "2021-07-30T18:19:29.326Z",
  "devdoc": {
    "methods": {}
  },
  "userdoc": {
    "methods": {}
  }
}