{
  "contractName": "Voter",
  "abi": [
    {
      "constant": true,
      "inputs": [
        {
          "name": "",
          "type": "uint256"
        }
      ],
      "name": "options",
      "outputs": [
        {
          "name": "",
          "type": "string"
        }
      ],
      "payable": false,
      "stateMutability": "view",
      "type": "function"
    },
    {
      "constant": true,
      "inputs": [
        {
          "name": "",
          "type": "uint256"
        }
      ],
      "name": "votes",
      "outputs": [
        {
          "name": "",
          "type": "uint256"
        }
      ],
      "payable": false,
      "stateMutability": "view",
      "type": "function"
    },
    {
      "constant": false,
      "inputs": [
        {
          "name": "option",
          "type": "string"
        }
      ],
      "name": "addOption",
      "outputs": [],
      "payable": false,
      "stateMutability": "nonpayable",
      "type": "function"
    },
    {
      "constant": false,
      "inputs": [],
      "name": "startVoting",
      "outputs": [],
      "payable": false,
      "stateMutability": "nonpayable",
      "type": "function"
    },
    {
      "constant": false,
      "inputs": [
        {
          "name": "option",
          "type": "uint256"
        }
      ],
      "name": "vote",
      "outputs": [],
      "payable": false,
      "stateMutability": "nonpayable",
      "type": "function"
    },
    {
      "constant": false,
      "inputs": [],
      "name": "getVotes",
      "outputs": [
        {
          "name": "",
          "type": "uint256[]"
        }
      ],
      "payable": false,
      "stateMutability": "nonpayable",
      "type": "function"
    }
  ],
  "bytecode": "0x608060405234801561001057600080fd5b50610859806100206000396000f300608060405260043610610078576000357c0100000000000000000000000000000000000000000000000000000000900463ffffffff1680630121b93f1461007d5780630dc96015146100aa5780631ec6b60a14610116578063409e22051461012d5780635df81330146101d3578063edc550dc14610214575b600080fd5b34801561008957600080fd5b506100a86004803603810190808035906020019092919050505061027d565b005b3480156100b657600080fd5b506100bf610463565b6040518080602001828103825283818151815260200191508051906020019060200280838360005b838110156101025780820151818401526020810190506100e7565b505050509050019250505060405180910390f35b34801561012257600080fd5b5061012b6104bb565b005b34801561013957600080fd5b5061015860048036038101908080359060200190929190505050610604565b6040518080602001828103825283818151815260200191508051906020019080838360005b8381101561019857808201518184015260208101905061017d565b50505050905090810190601f1680156101c55780820380516001836020036101000a031916815260200191505b509250505060405180910390f35b3480156101df57600080fd5b506101fe600480360381019080803590602001909291905050506106bf565b6040518082815260200191505060405180910390f35b34801561022057600080fd5b5061027b600480360381019080803590602001908201803590602001908080601f01602080910402602001604051908101604052809392919081815260200183838082843782019150505050505091929192905050506106e2565b005b60001515600260003373ffffffffffffffffffffffffffffffffffffffff1673ffffffffffffffffffffffffffffffffffffffff16815260200190815260200160002060009054906101000a900460ff161515141515610345576040517f08c379a000000000000000000000000000000000000000000000000000000000815260040180806020018281038252601c8152602001807f5468652073656e6465722068617320616c726561647920766f7465640000000081525060200191505060405180910390fd5b8060001115801561035a575060018054905081105b15156103ce576040517f08c379a000000000000000000000000000000000000000000000000000000000815260040180806020018281038252601a8152602001807f546865206f7074696f6e20646f6573206e6f742065786973747300000000000081525060200191505060405180910390fd5b60016000828154811015156103df57fe5b9060005260206000200154016000828154811015156103fa57fe5b90600052602060002001819055506001600260003373ffffffffffffffffffffffffffffffffffffffff1673ffffffffffffffffffffffffffffffffffffffff16815260200190815260200160002060006101000a81548160ff02191690831515021790555050565b606060008054806020026020016040519081016040528092919081815260200182805480156104b157602002820191906000526020600020905b81548152602001906001019080831161049d575b5050505050905090565b60006104c5610740565b600460009054906101000a900460ff161515156104e157600080fd5b6001805490506000816104f4919061075c565b50600091505b6001805490508210156105e557604080519081016040528083815260200160011515815250905080600360018481548110151561053357fe5b9060005260206000200160405180828054600181600116156101000203166002900480156105985780601f10610576576101008083540402835291820191610598565b820191906000526020600020905b815481529060010190602001808311610584575b505091505090815260200160405180910390206000820151816000015560208201518160010160006101000a81548160ff02191690831515021790555090505081806001019250506104fa565b6001600460006101000a81548160ff0219169083151502179055505050565b60018181548110151561061357fe5b906000526020600020016000915090508054600181600116156101000203166002900480601f0160208091040260200160405190810160405280929190818152602001828054600181600116156101000203166002900480156106b75780601f1061068c576101008083540402835291602001916106b7565b820191906000526020600020905b81548152906001019060200180831161069a57829003601f168201915b505050505081565b6000818154811015156106ce57fe5b906000526020600020016000915090505481565b600460009054906101000a900460ff161515156106fe57600080fd5b600181908060018154018082558091505090600182039060005260206000200160009091929091909150908051906020019061073b929190610788565b505050565b6040805190810160405280600081526020016000151581525090565b815481835581811115610783578183600052602060002091820191016107829190610808565b5b505050565b828054600181600116156101000203166002900490600052602060002090601f016020900481019282601f106107c957805160ff19168380011785556107f7565b828001600101855582156107f7579182015b828111156107f65782518255916020019190600101906107db565b5b5090506108049190610808565b5090565b61082a91905b8082111561082657600081600090555060010161080e565b5090565b905600a165627a7a7230582072eb200b4b9312ee6d4707e1bcb5a836d5e844d1493f0c6bce31d9d374db773b0029",
  "source": "pragma solidity ^0.4.0;\n\ncontract Voter {\n    \n    struct OptionPos {\n        uint pos;\n        bool exists;\n    }\n    \n    uint[] public votes;\n    string[] public options;\n    mapping(address => bool) hasVoted; //It gets automatically initialized with default values (false)\n    mapping(string => OptionPos) posOfOption;\n    bool votingStarted;\n\n    function addOption(string option) public {\n        require(!votingStarted);\n        options.push(option);\n    }\n\n    function startVoting() public {\n        require(!votingStarted);\n        votes.length = options.length;\n        for(uint i=0; i<options.length; i++){\n            OptionPos memory option = OptionPos(i, true);\n            posOfOption[options[i]] = option;\n        }\n        votingStarted = true;\n    }\n    \n    function vote(uint option) public {\n        require(hasVoted[msg.sender] == false, \"The sender has already voted\");\n        require(0 <= option && option < options.length, \"The option does not exists\");\n        votes[option] = votes[option] + 1;\n        hasVoted[msg.sender] = true;\n    }\n    \n    function getVotes() public returns (uint[]) {\n        return votes;\n    }\n    \n}",
  "sourcePath": "/Users/Ivan/Development/truffle/contracts/Voter.sol",
  "compiler": {
    "name": "solc",
    "version": "0.4.22+commit.4cb486ee.Emscripten.clang"
  },
  "schemaVersion": "3.4.2",
  "updatedAt": "2021-07-27T11:58:16.722Z",
  "networkType": "ethereum",
  "devdoc": {
    "methods": {}
  },
  "userdoc": {
    "methods": {}
  }
}